{
  "_format": "hh-sol-artifact-1",
  "contractName": "ColorfulTrooperNFT",
  "sourceName": "contracts/ColorfulTrooperNFT.sol",
  "abi": [
    {
      "inputs": [],
      "stateMutability": "nonpayable",
      "type": "constructor"
    },
    {
      "anonymous": false,
      "inputs": [
        {
          "indexed": true,
          "internalType": "address",
          "name": "owner",
          "type": "address"
        },
        {
          "indexed": true,
          "internalType": "address",
          "name": "approved",
          "type": "address"
        },
        {
          "indexed": true,
          "internalType": "uint256",
          "name": "tokenId",
          "type": "uint256"
        }
      ],
      "name": "Approval",
      "type": "event"
    },
    {
      "anonymous": false,
      "inputs": [
        {
          "indexed": true,
          "internalType": "address",
          "name": "owner",
          "type": "address"
        },
        {
          "indexed": true,
          "internalType": "address",
          "name": "operator",
          "type": "address"
        },
        {
          "indexed": false,
          "internalType": "bool",
          "name": "approved",
          "type": "bool"
        }
      ],
      "name": "ApprovalForAll",
      "type": "event"
    },
    {
      "anonymous": false,
      "inputs": [
        {
          "indexed": false,
          "internalType": "address",
          "name": "sender",
          "type": "address"
        },
        {
          "indexed": false,
          "internalType": "uint256",
          "name": "tokenId",
          "type": "uint256"
        }
      ],
      "name": "NewColorfulTrooperMinted",
      "type": "event"
    },
    {
      "anonymous": false,
      "inputs": [
        {
          "indexed": true,
          "internalType": "address",
          "name": "from",
          "type": "address"
        },
        {
          "indexed": true,
          "internalType": "address",
          "name": "to",
          "type": "address"
        },
        {
          "indexed": true,
          "internalType": "uint256",
          "name": "tokenId",
          "type": "uint256"
        }
      ],
      "name": "Transfer",
      "type": "event"
    },
    {
      "inputs": [
        {
          "internalType": "address",
          "name": "to",
          "type": "address"
        },
        {
          "internalType": "uint256",
          "name": "tokenId",
          "type": "uint256"
        }
      ],
      "name": "approve",
      "outputs": [],
      "stateMutability": "nonpayable",
      "type": "function"
    },
    {
      "inputs": [
        {
          "internalType": "address",
          "name": "owner",
          "type": "address"
        }
      ],
      "name": "balanceOf",
      "outputs": [
        {
          "internalType": "uint256",
          "name": "",
          "type": "uint256"
        }
      ],
      "stateMutability": "view",
      "type": "function"
    },
    {
      "inputs": [
        {
          "internalType": "uint256",
          "name": "tokenId",
          "type": "uint256"
        }
      ],
      "name": "getApproved",
      "outputs": [
        {
          "internalType": "address",
          "name": "",
          "type": "address"
        }
      ],
      "stateMutability": "view",
      "type": "function"
    },
    {
      "inputs": [],
      "name": "getBgPalette",
      "outputs": [
        {
          "internalType": "string",
          "name": "",
          "type": "string"
        }
      ],
      "stateMutability": "view",
      "type": "function"
    },
    {
      "inputs": [],
      "name": "getImagePalette",
      "outputs": [
        {
          "internalType": "string",
          "name": "",
          "type": "string"
        }
      ],
      "stateMutability": "view",
      "type": "function"
    },
    {
      "inputs": [
        {
          "internalType": "address",
          "name": "owner",
          "type": "address"
        },
        {
          "internalType": "address",
          "name": "operator",
          "type": "address"
        }
      ],
      "name": "isApprovedForAll",
      "outputs": [
        {
          "internalType": "bool",
          "name": "",
          "type": "bool"
        }
      ],
      "stateMutability": "view",
      "type": "function"
    },
    {
      "inputs": [],
      "name": "mintNFT",
      "outputs": [],
      "stateMutability": "nonpayable",
      "type": "function"
    },
    {
      "inputs": [],
      "name": "name",
      "outputs": [
        {
          "internalType": "string",
          "name": "",
          "type": "string"
        }
      ],
      "stateMutability": "view",
      "type": "function"
    },
    {
      "inputs": [
        {
          "internalType": "uint256",
          "name": "tokenId",
          "type": "uint256"
        }
      ],
      "name": "ownerOf",
      "outputs": [
        {
          "internalType": "address",
          "name": "",
          "type": "address"
        }
      ],
      "stateMutability": "view",
      "type": "function"
    },
    {
      "inputs": [
        {
          "internalType": "address",
          "name": "from",
          "type": "address"
        },
        {
          "internalType": "address",
          "name": "to",
          "type": "address"
        },
        {
          "internalType": "uint256",
          "name": "tokenId",
          "type": "uint256"
        }
      ],
      "name": "safeTransferFrom",
      "outputs": [],
      "stateMutability": "nonpayable",
      "type": "function"
    },
    {
      "inputs": [
        {
          "internalType": "address",
          "name": "from",
          "type": "address"
        },
        {
          "internalType": "address",
          "name": "to",
          "type": "address"
        },
        {
          "internalType": "uint256",
          "name": "tokenId",
          "type": "uint256"
        },
        {
          "internalType": "bytes",
          "name": "_data",
          "type": "bytes"
        }
      ],
      "name": "safeTransferFrom",
      "outputs": [],
      "stateMutability": "nonpayable",
      "type": "function"
    },
    {
      "inputs": [
        {
          "internalType": "address",
          "name": "operator",
          "type": "address"
        },
        {
          "internalType": "bool",
          "name": "approved",
          "type": "bool"
        }
      ],
      "name": "setApprovalForAll",
      "outputs": [],
      "stateMutability": "nonpayable",
      "type": "function"
    },
    {
      "inputs": [
        {
          "internalType": "bytes4",
          "name": "interfaceId",
          "type": "bytes4"
        }
      ],
      "name": "supportsInterface",
      "outputs": [
        {
          "internalType": "bool",
          "name": "",
          "type": "bool"
        }
      ],
      "stateMutability": "view",
      "type": "function"
    },
    {
      "inputs": [],
      "name": "symbol",
      "outputs": [
        {
          "internalType": "string",
          "name": "",
          "type": "string"
        }
      ],
      "stateMutability": "view",
      "type": "function"
    },
    {
      "inputs": [
        {
          "internalType": "uint256",
          "name": "tokenId",
          "type": "uint256"
        }
      ],
      "name": "tokenURI",
      "outputs": [
        {
          "internalType": "string",
          "name": "",
          "type": "string"
        }
      ],
      "stateMutability": "view",
      "type": "function"
    },
    {
      "inputs": [
        {
          "internalType": "address",
          "name": "from",
          "type": "address"
        },
        {
          "internalType": "address",
          "name": "to",
          "type": "address"
        },
        {
          "internalType": "uint256",
          "name": "tokenId",
          "type": "uint256"
        }
      ],
      "name": "transferFrom",
      "outputs": [],
      "stateMutability": "nonpayable",
      "type": "function"
    }
  ],
  "bytecode": "0x60806040526040518061032001604052806040518060400160405280600781526020017f233030304436420000000000000000000000000000000000000000000000000081525081526020016040518060400160405280600781526020017f234239383346460000000000000000000000000000000000000000000000000081525081526020016040518060400160405280600781526020017f234646303037350000000000000000000000000000000000000000000000000081525081526020016040518060400160405280600781526020017f233439464630300000000000000000000000000000000000000000000000000081525081526020016040518060400160405280600781526020017f233730323741300000000000000000000000000000000000000000000000000081525081526020016040518060400160405280600781526020017f234646303030300000000000000000000000000000000000000000000000000081525081526020016040518060400160405280600781526020017f233244343642390000000000000000000000000000000000000000000000000081525081526020016040518060400160405280600781526020017f233034303039410000000000000000000000000000000000000000000000000081525081526020016040518060400160405280600781526020017f234145303046420000000000000000000000000000000000000000000000000081525081526020016040518060400160405280600781526020017f233438303033320000000000000000000000000000000000000000000000000081525081526020016040518060400160405280600781526020017f233145414539380000000000000000000000000000000000000000000000000081525081526020016040518060400160405280600781526020017f233534324537310000000000000000000000000000000000000000000000000081525081526020016040518060400160405280600781526020017f234346303030300000000000000000000000000000000000000000000000000081525081526020016040518060400160405280600781526020017f233430333934410000000000000000000000000000000000000000000000000081525081526020016040518060400160405280600781526020017f233831303033340000000000000000000000000000000000000000000000000081525081526020016040518060400160405280600781526020017f233738363845360000000000000000000000000000000000000000000000000081525081526020016040518060400160405280600781526020017f233634444644460000000000000000000000000000000000000000000000000081525081526020016040518060400160405280600781526020017f233030373936350000000000000000000000000000000000000000000000000081525081526020016040518060400160405280600781526020017f233045343942350000000000000000000000000000000000000000000000000081525081526020016040518060400160405280600781526020017f233132393437460000000000000000000000000000000000000000000000000081525081526020016040518060400160405280600781526020017f233444303839410000000000000000000000000000000000000000000000000081525081526020016040518060400160405280600781526020017f233237323132310000000000000000000000000000000000000000000000000081525081526020016040518060400160405280600781526020017f234146303430340000000000000000000000000000000000000000000000000081525081526020016040518060400160405280600781526020017f233230343936390000000000000000000000000000000000000000000000000081525081526020016040518060400160405280600781526020017f23393330303737000000000000000000000000000000000000000000000000008152508152506008906019620005e392919062000d73565b506040518061032001604052806040518060400160405280600781526020017f234646463333380000000000000000000000000000000000000000000000000081525081526020016040518060400160405280600781526020017f234432453630330000000000000000000000000000000000000000000000000081525081526020016040518060400160405280600781526020017f233934423346440000000000000000000000000000000000000000000000000081525081526020016040518060400160405280600781526020017f234646354441320000000000000000000000000000000000000000000000000081525081526020016040518060400160405280600781526020017f234234464539380000000000000000000000000000000000000000000000000081525081526020016040518060400160405280600781526020017f234646454445440000000000000000000000000000000000000000000000000081525081526020016040518060400160405280600781526020017f234644423946430000000000000000000000000000000000000000000000000081525081526020016040518060400160405280600781526020017f233439464630300000000000000000000000000000000000000000000000000081525081526020016040518060400160405280600781526020017f233737443937300000000000000000000000000000000000000000000000000081525081526020016040518060400160405280600781526020017f234231464646440000000000000000000000000000000000000000000000000081525081526020016040518060400160405280600781526020017f234635464442300000000000000000000000000000000000000000000000000081525081526020016040518060400160405280600781526020017f233738444543370000000000000000000000000000000000000000000000000081525081526020016040518060400160405280600781526020017f234330464546430000000000000000000000000000000000000000000000000081525081526020016040518060400160405280600781526020017f234343464642440000000000000000000000000000000000000000000000000081525081526020016040518060400160405280600781526020017f234336374143450000000000000000000000000000000000000000000000000081525081526020016040518060400160405280600781526020017f234238423546460000000000000000000000000000000000000000000000000081525081526020016040518060400160405280600781526020017f234642373831330000000000000000000000000000000000000000000000000081525081526020016040518060400160405280600781526020017f234334464236440000000000000000000000000000000000000000000000000081525081526020016040518060400160405280600781526020017f234443324144450000000000000000000000000000000000000000000000000081525081526020016040518060400160405280600781526020017f234635463045330000000000000000000000000000000000000000000000000081525081526020016040518060400160405280600781526020017f234534463946460000000000000000000000000000000000000000000000000081525081526020016040518060400160405280600781526020017f234232464346460000000000000000000000000000000000000000000000000081525081526020016040518060400160405280600781526020017f234631464133430000000000000000000000000000000000000000000000000081525081526020016040518060400160405280600781526020017f234138464633450000000000000000000000000000000000000000000000000081525081526020016040518060400160405280600781526020017f2346373746454500000000000000000000000000000000000000000000000000815250815250600990601962000bc392919062000d73565b5034801562000bd157600080fd5b506040518060400160405280601081526020017f436f6c6f7266756c2054726f6f706572000000000000000000000000000000008152506040518060400160405280600581526020017f54524f4f50000000000000000000000000000000000000000000000000000000815250816000908051906020019062000c5692919062000dda565b50806001908051906020019062000c6f92919062000dda565b50505062000ca16040518060600160405280602a8152602001620045e8602a913962000ca760201b62000fe11760201c565b62001025565b62000d478160405160240162000cbe919062000f39565b6040516020818303038152906040527f41304fac000000000000000000000000000000000000000000000000000000007bffffffffffffffffffffffffffffffffffffffffffffffffffffffff19166020820180517bffffffffffffffffffffffffffffffffffffffffffffffffffffffff838183161783525050505062000d4a60201b60201c565b50565b60008151905060006a636f6e736f6c652e6c6f679050602083016000808483855afa5050505050565b82805482825590600052602060002090810192821562000dc7579160200282015b8281111562000dc657825182908051906020019062000db592919062000dda565b509160200191906001019062000d94565b5b50905062000dd6919062000e6b565b5090565b82805462000de89062000faf565b90600052602060002090601f01602090048101928262000e0c576000855562000e58565b82601f1062000e2757805160ff191683800117855562000e58565b8280016001018555821562000e58579182015b8281111562000e5757825182559160200191906001019062000e3a565b5b50905062000e67919062000e93565b5090565b5b8082111562000e8f576000818162000e85919062000eb2565b5060010162000e6c565b5090565b5b8082111562000eae57600081600090555060010162000e94565b5090565b50805462000ec09062000faf565b6000825580601f1062000ed4575062000ef5565b601f01602090049060005260206000209081019062000ef4919062000e93565b5b50565b600062000f058262000f5d565b62000f11818562000f68565b935062000f2381856020860162000f79565b62000f2e8162001014565b840191505092915050565b6000602082019050818103600083015262000f55818462000ef8565b905092915050565b600081519050919050565b600082825260208201905092915050565b60005b8381101562000f9957808201518184015260208101905062000f7c565b8381111562000fa9576000848401525b50505050565b6000600282049050600182168062000fc857607f821691505b6020821081141562000fdf5762000fde62000fe5565b5b50919050565b7f4e487b7100000000000000000000000000000000000000000000000000000000600052602260045260246000fd5b6000601f19601f8301169050919050565b6135b380620010356000396000f3fe608060405234801561001057600080fd5b50600436106101005760003560e01c806370a0823111610097578063c87b56dd11610066578063c87b56dd14610297578063e985e9c5146102c7578063fdc7bcc9146102f7578063ff8d5c9e1461031557610100565b806370a082311461021157806395d89b4114610241578063a22cb4651461025f578063b88d4fde1461027b57610100565b806314f710fe116100d357806314f710fe1461019f57806323b872dd146101a957806342842e0e146101c55780636352211e146101e157610100565b806301ffc9a71461010557806306fdde0314610135578063081812fc14610153578063095ea7b314610183575b600080fd5b61011f600480360381019061011a91906123d0565b610333565b60405161012c9190612e04565b60405180910390f35b61013d610415565b60405161014a9190612e1f565b60405180910390f35b61016d60048036038101906101689190612463565b6104a7565b60405161017a9190612d74565b60405180910390f35b61019d60048036038101906101989190612394565b61052c565b005b6101a7610644565b005b6101c360048036038101906101be919061228e565b610835565b005b6101df60048036038101906101da919061228e565b610895565b005b6101fb60048036038101906101f69190612463565b6108b5565b6040516102089190612d74565b60405180910390f35b61022b60048036038101906102269190612229565b610967565b6040516102389190613108565b60405180910390f35b610249610a1f565b6040516102569190612e1f565b60405180910390f35b61027960048036038101906102749190612358565b610ab1565b005b610295600480360381019061029091906122dd565b610ac7565b005b6102b160048036038101906102ac9190612463565b610b29565b6040516102be9190612e1f565b60405180910390f35b6102e160048036038101906102dc9190612252565b610c7b565b6040516102ee9190612e04565b60405180910390f35b6102ff610d0f565b60405161030c9190612e1f565b60405180910390f35b61031d610e78565b60405161032a9190612e1f565b60405180910390f35b60007f80ac58cd000000000000000000000000000000000000000000000000000000007bffffffffffffffffffffffffffffffffffffffffffffffffffffffff1916827bffffffffffffffffffffffffffffffffffffffffffffffffffffffff191614806103fe57507f5b5e139f000000000000000000000000000000000000000000000000000000007bffffffffffffffffffffffffffffffffffffffffffffffffffffffff1916827bffffffffffffffffffffffffffffffffffffffffffffffffffffffff1916145b8061040e575061040d8261107a565b5b9050919050565b60606000805461042490613379565b80601f016020809104026020016040519081016040528092919081815260200182805461045090613379565b801561049d5780601f106104725761010080835404028352916020019161049d565b820191906000526020600020905b81548152906001019060200180831161048057829003601f168201915b5050505050905090565b60006104b2826110e4565b6104f1576040517f08c379a00000000000000000000000000000000000000000000000000000000081526004016104e890613046565b60405180910390fd5b6004600083815260200190815260200160002060009054906101000a900473ffffffffffffffffffffffffffffffffffffffff169050919050565b6000610537826108b5565b90508073ffffffffffffffffffffffffffffffffffffffff168373ffffffffffffffffffffffffffffffffffffffff1614156105a8576040517f08c379a000000000000000000000000000000000000000000000000000000000815260040161059f906130a6565b60405180910390fd5b8073ffffffffffffffffffffffffffffffffffffffff166105c7611150565b73ffffffffffffffffffffffffffffffffffffffff1614806105f657506105f5816105f0611150565b610c7b565b5b610635576040517f08c379a000000000000000000000000000000000000000000000000000000000815260040161062c90612f86565b60405180910390fd5b61063f8383611158565b505050565b60006106506007611211565b9050600061065c610d0f565b90506000610668610e78565b9050600060405180608001604052806040518060400160405280601081526020017f436f6c6f7266756c2054726f6f70657200000000000000000000000000000000815250815260200184846040516020016106c5929190612d2f565b6040516020818303038152906040528152602001848152602001838152509050600073__$cea9be979eee3d87fb124d6cbb244bb0b5$__635b4e7487836040518263ffffffff1660e01b815260040161071e91906130e6565b60006040518083038186803b15801561073657600080fd5b505af415801561074a573d6000803e3d6000fd5b505050506040513d6000823e3d601f19601f820116820180604052508101906107739190612422565b90506107b46040518060400160405280601281526020017f746f6b656e55524920637265617465643a2000000000000000000000000000008152508261121f565b6107be33866112bb565b6107c885826112d9565b6107eb60405180606001604052806025815260200161355960259139863361134d565b6107f560076113ec565b7f4408596d3a7bc7f830831abb506fbbc9257536b6e23ee975ce4f80789d359a723386604051610826929190612ddb565b60405180910390a15050505050565b610846610840611150565b82611402565b610885576040517f08c379a000000000000000000000000000000000000000000000000000000000815260040161087c906130c6565b60405180910390fd5b6108908383836114e0565b505050565b6108b083838360405180602001604052806000815250610ac7565b505050565b6000806002600084815260200190815260200160002060009054906101000a900473ffffffffffffffffffffffffffffffffffffffff169050600073ffffffffffffffffffffffffffffffffffffffff168173ffffffffffffffffffffffffffffffffffffffff16141561095e576040517f08c379a000000000000000000000000000000000000000000000000000000000815260040161095590612fc6565b60405180910390fd5b80915050919050565b60008073ffffffffffffffffffffffffffffffffffffffff168273ffffffffffffffffffffffffffffffffffffffff1614156109d8576040517f08c379a00000000000000000000000000000000000000000000000000000000081526004016109cf90612fa6565b60405180910390fd5b600360008373ffffffffffffffffffffffffffffffffffffffff1673ffffffffffffffffffffffffffffffffffffffff168152602001908152602001600020549050919050565b606060018054610a2e90613379565b80601f0160208091040260200160405190810160405280929190818152602001828054610a5a90613379565b8015610aa75780601f10610a7c57610100808354040283529160200191610aa7565b820191906000526020600020905b815481529060010190602001808311610a8a57829003601f168201915b5050505050905090565b610ac3610abc611150565b838361173c565b5050565b610ad8610ad2611150565b83611402565b610b17576040517f08c379a0000000000000000000000000000000000000000000000000000000008152600401610b0e906130c6565b60405180910390fd5b610b23848484846118a9565b50505050565b6060610b34826110e4565b610b73576040517f08c379a0000000000000000000000000000000000000000000000000000000008152600401610b6a90613026565b60405180910390fd5b6000600660008481526020019081526020016000208054610b9390613379565b80601f0160208091040260200160405190810160405280929190818152602001828054610bbf90613379565b8015610c0c5780601f10610be157610100808354040283529160200191610c0c565b820191906000526020600020905b815481529060010190602001808311610bef57829003601f168201915b505050505090506000610c1d611905565b9050600081511415610c33578192505050610c76565b600082511115610c68578082604051602001610c50929190612cd2565b60405160208183030381529060405292505050610c76565b610c718461191c565b925050505b919050565b6000600560008473ffffffffffffffffffffffffffffffffffffffff1673ffffffffffffffffffffffffffffffffffffffff16815260200190815260200160002060008373ffffffffffffffffffffffffffffffffffffffff1673ffffffffffffffffffffffffffffffffffffffff16815260200190815260200160002060009054906101000a900460ff16905092915050565b60606000610d516040518060400160405280600a81526020017f4241434b47524f554e44000000000000000000000000000000000000000000008152506119c3565b905060088054905081610d6491906133fe565b9050610da56040518060400160405280601281526020017f72616e646f6d204247206e756d6265723a20000000000000000000000000000081525082611a03565b60088181548110610ddf577f4e487b7100000000000000000000000000000000000000000000000000000000600052603260045260246000fd5b906000526020600020018054610df490613379565b80601f0160208091040260200160405190810160405280929190818152602001828054610e2090613379565b8015610e6d5780601f10610e4257610100808354040283529160200191610e6d565b820191906000526020600020905b815481529060010190602001808311610e5057829003601f168201915b505050505091505090565b60606000610eba6040518060400160405280600581526020017f494d4147450000000000000000000000000000000000000000000000000000008152506119c3565b905060098054905081610ecd91906133fe565b9050610f0e6040518060400160405280601581526020017f72616e646f6d20496d616765206e756d6265723a20000000000000000000000081525082611a03565b60098181548110610f48577f4e487b7100000000000000000000000000000000000000000000000000000000600052603260045260246000fd5b906000526020600020018054610f5d90613379565b80601f0160208091040260200160405190810160405280929190818152602001828054610f8990613379565b8015610fd65780601f10610fab57610100808354040283529160200191610fd6565b820191906000526020600020905b815481529060010190602001808311610fb957829003601f168201915b505050505091505090565b61107781604051602401610ff59190612e1f565b6040516020818303038152906040527f41304fac000000000000000000000000000000000000000000000000000000007bffffffffffffffffffffffffffffffffffffffffffffffffffffffff19166020820180517bffffffffffffffffffffffffffffffffffffffffffffffffffffffff8381831617835250505050611a9f565b50565b60007f01ffc9a7000000000000000000000000000000000000000000000000000000007bffffffffffffffffffffffffffffffffffffffffffffffffffffffff1916827bffffffffffffffffffffffffffffffffffffffffffffffffffffffff1916149050919050565b60008073ffffffffffffffffffffffffffffffffffffffff166002600084815260200190815260200160002060009054906101000a900473ffffffffffffffffffffffffffffffffffffffff1673ffffffffffffffffffffffffffffffffffffffff1614159050919050565b600033905090565b816004600083815260200190815260200160002060006101000a81548173ffffffffffffffffffffffffffffffffffffffff021916908373ffffffffffffffffffffffffffffffffffffffff160217905550808273ffffffffffffffffffffffffffffffffffffffff166111cb836108b5565b73ffffffffffffffffffffffffffffffffffffffff167f8c5be1e5ebec7d5bd14f71427d1e84f3dd0314c0f7b2291e5b200ac8c7c3b92560405160405180910390a45050565b600081600001549050919050565b6112b78282604051602401611235929190612e41565b6040516020818303038152906040527f4b5c4277000000000000000000000000000000000000000000000000000000007bffffffffffffffffffffffffffffffffffffffffffffffffffffffff19166020820180517bffffffffffffffffffffffffffffffffffffffffffffffffffffffff8381831617835250505050611a9f565b5050565b6112d5828260405180602001604052806000815250611ac8565b5050565b6112e2826110e4565b611321576040517f08c379a000000000000000000000000000000000000000000000000000000000815260040161131890612fe6565b60405180910390fd5b8060066000848152602001908152602001600020908051906020019061134892919061204d565b505050565b6113e783838360405160240161136593929190612ea8565b6040516020818303038152906040527fe3849f79000000000000000000000000000000000000000000000000000000007bffffffffffffffffffffffffffffffffffffffffffffffffffffffff19166020820180517bffffffffffffffffffffffffffffffffffffffffffffffffffffffff8381831617835250505050611a9f565b505050565b6001816000016000828254019250508190555050565b600061140d826110e4565b61144c576040517f08c379a000000000000000000000000000000000000000000000000000000000815260040161144390612f66565b60405180910390fd5b6000611457836108b5565b90508073ffffffffffffffffffffffffffffffffffffffff168473ffffffffffffffffffffffffffffffffffffffff1614806114c657508373ffffffffffffffffffffffffffffffffffffffff166114ae846104a7565b73ffffffffffffffffffffffffffffffffffffffff16145b806114d757506114d68185610c7b565b5b91505092915050565b8273ffffffffffffffffffffffffffffffffffffffff16611500826108b5565b73ffffffffffffffffffffffffffffffffffffffff1614611556576040517f08c379a000000000000000000000000000000000000000000000000000000000815260040161154d90613066565b60405180910390fd5b600073ffffffffffffffffffffffffffffffffffffffff168273ffffffffffffffffffffffffffffffffffffffff1614156115c6576040517f08c379a00000000000000000000000000000000000000000000000000000000081526004016115bd90612f26565b60405180910390fd5b6115d1838383611b23565b6115dc600082611158565b6001600360008573ffffffffffffffffffffffffffffffffffffffff1673ffffffffffffffffffffffffffffffffffffffff168152602001908152602001600020600082825461162c919061328f565b925050819055506001600360008473ffffffffffffffffffffffffffffffffffffffff1673ffffffffffffffffffffffffffffffffffffffff16815260200190815260200160002060008282546116839190613208565b92505081905550816002600083815260200190815260200160002060006101000a81548173ffffffffffffffffffffffffffffffffffffffff021916908373ffffffffffffffffffffffffffffffffffffffff160217905550808273ffffffffffffffffffffffffffffffffffffffff168473ffffffffffffffffffffffffffffffffffffffff167fddf252ad1be2c89b69c2b068fc378daa952ba7f163c4a11628f55a4df523b3ef60405160405180910390a4505050565b8173ffffffffffffffffffffffffffffffffffffffff168373ffffffffffffffffffffffffffffffffffffffff1614156117ab576040517f08c379a00000000000000000000000000000000000000000000000000000000081526004016117a290612f46565b60405180910390fd5b80600560008573ffffffffffffffffffffffffffffffffffffffff1673ffffffffffffffffffffffffffffffffffffffff16815260200190815260200160002060008473ffffffffffffffffffffffffffffffffffffffff1673ffffffffffffffffffffffffffffffffffffffff16815260200190815260200160002060006101000a81548160ff0219169083151502179055508173ffffffffffffffffffffffffffffffffffffffff168373ffffffffffffffffffffffffffffffffffffffff167f17307eab39ab6107e8899845ad3d59bd9653f200f220920489ca2b5937696c318360405161189c9190612e04565b60405180910390a3505050565b6118b48484846114e0565b6118c084848484611b28565b6118ff576040517f08c379a00000000000000000000000000000000000000000000000000000000081526004016118f690612ee6565b60405180910390fd5b50505050565b606060405180602001604052806000815250905090565b6060611927826110e4565b611966576040517f08c379a000000000000000000000000000000000000000000000000000000000815260040161195d90613086565b60405180910390fd5b6000611970611905565b9050600081511161199057604051806020016040528060008152506119bb565b8061199a84611cbf565b6040516020016119ab929190612cd2565b6040516020818303038152906040525b915050919050565b6000816119d06007611211565b426040516020016119e393929190612cf6565b6040516020818303038152906040528051906020012060001c9050919050565b611a9b8282604051602401611a19929190612e78565b6040516020818303038152906040527f9710a9d0000000000000000000000000000000000000000000000000000000007bffffffffffffffffffffffffffffffffffffffffffffffffffffffff19166020820180517bffffffffffffffffffffffffffffffffffffffffffffffffffffffff8381831617835250505050611a9f565b5050565b60008151905060006a636f6e736f6c652e6c6f679050602083016000808483855afa5050505050565b611ad28383611e6c565b611adf6000848484611b28565b611b1e576040517f08c379a0000000000000000000000000000000000000000000000000000000008152600401611b1590612ee6565b60405180910390fd5b505050565b505050565b6000611b498473ffffffffffffffffffffffffffffffffffffffff1661203a565b15611cb2578373ffffffffffffffffffffffffffffffffffffffff1663150b7a02611b72611150565b8786866040518563ffffffff1660e01b8152600401611b949493929190612d8f565b602060405180830381600087803b158015611bae57600080fd5b505af1925050508015611bdf57506040513d601f19601f82011682018060405250810190611bdc91906123f9565b60015b611c62573d8060008114611c0f576040519150601f19603f3d011682016040523d82523d6000602084013e611c14565b606091505b50600081511415611c5a576040517f08c379a0000000000000000000000000000000000000000000000000000000008152600401611c5190612ee6565b60405180910390fd5b805181602001fd5b63150b7a0260e01b7bffffffffffffffffffffffffffffffffffffffffffffffffffffffff1916817bffffffffffffffffffffffffffffffffffffffffffffffffffffffff191614915050611cb7565b600190505b949350505050565b60606000821415611d07576040518060400160405280600181526020017f30000000000000000000000000000000000000000000000000000000000000008152509050611e67565b600082905060005b60008214611d39578080611d22906133ab565b915050600a82611d32919061325e565b9150611d0f565b60008167ffffffffffffffff811115611d7b577f4e487b7100000000000000000000000000000000000000000000000000000000600052604160045260246000fd5b6040519080825280601f01601f191660200182016040528015611dad5781602001600182028036833780820191505090505b5090505b60008514611e6057600182611dc6919061328f565b9150600a85611dd591906133fe565b6030611de19190613208565b60f81b818381518110611e1d577f4e487b7100000000000000000000000000000000000000000000000000000000600052603260045260246000fd5b60200101907effffffffffffffffffffffffffffffffffffffffffffffffffffffffffffff1916908160001a905350600a85611e59919061325e565b9450611db1565b8093505050505b919050565b600073ffffffffffffffffffffffffffffffffffffffff168273ffffffffffffffffffffffffffffffffffffffff161415611edc576040517f08c379a0000000000000000000000000000000000000000000000000000000008152600401611ed390613006565b60405180910390fd5b611ee5816110e4565b15611f25576040517f08c379a0000000000000000000000000000000000000000000000000000000008152600401611f1c90612f06565b60405180910390fd5b611f3160008383611b23565b6001600360008473ffffffffffffffffffffffffffffffffffffffff1673ffffffffffffffffffffffffffffffffffffffff1681526020019081526020016000206000828254611f819190613208565b92505081905550816002600083815260200190815260200160002060006101000a81548173ffffffffffffffffffffffffffffffffffffffff021916908373ffffffffffffffffffffffffffffffffffffffff160217905550808273ffffffffffffffffffffffffffffffffffffffff16600073ffffffffffffffffffffffffffffffffffffffff167fddf252ad1be2c89b69c2b068fc378daa952ba7f163c4a11628f55a4df523b3ef60405160405180910390a45050565b600080823b905060008111915050919050565b82805461205990613379565b90600052602060002090601f01602090048101928261207b57600085556120c2565b82601f1061209457805160ff19168380011785556120c2565b828001600101855582156120c2579182015b828111156120c15782518255916020019190600101906120a6565b5b5090506120cf91906120d3565b5090565b5b808211156120ec5760008160009055506001016120d4565b5090565b60006121036120fe84613154565b613123565b90508281526020810184848401111561211b57600080fd5b612126848285613337565b509392505050565b600061214161213c84613184565b613123565b90508281526020810184848401111561215957600080fd5b612164848285613346565b509392505050565b60008135905061217b816134fc565b92915050565b60008135905061219081613513565b92915050565b6000813590506121a58161352a565b92915050565b6000815190506121ba8161352a565b92915050565b600082601f8301126121d157600080fd5b81356121e18482602086016120f0565b91505092915050565b600082601f8301126121fb57600080fd5b815161220b84826020860161212e565b91505092915050565b60008135905061222381613541565b92915050565b60006020828403121561223b57600080fd5b60006122498482850161216c565b91505092915050565b6000806040838503121561226557600080fd5b60006122738582860161216c565b92505060206122848582860161216c565b9150509250929050565b6000806000606084860312156122a357600080fd5b60006122b18682870161216c565b93505060206122c28682870161216c565b92505060406122d386828701612214565b9150509250925092565b600080600080608085870312156122f357600080fd5b60006123018782880161216c565b94505060206123128782880161216c565b935050604061232387828801612214565b925050606085013567ffffffffffffffff81111561234057600080fd5b61234c878288016121c0565b91505092959194509250565b6000806040838503121561236b57600080fd5b60006123798582860161216c565b925050602061238a85828601612181565b9150509250929050565b600080604083850312156123a757600080fd5b60006123b58582860161216c565b92505060206123c685828601612214565b9150509250929050565b6000602082840312156123e257600080fd5b60006123f084828501612196565b91505092915050565b60006020828403121561240b57600080fd5b6000612419848285016121ab565b91505092915050565b60006020828403121561243457600080fd5b600082015167ffffffffffffffff81111561244e57600080fd5b61245a848285016121ea565b91505092915050565b60006020828403121561247557600080fd5b600061248384828501612214565b91505092915050565b612495816132c3565b82525050565b6124a4816132d5565b82525050565b60006124b5826131b4565b6124bf81856131ca565b93506124cf818560208601613346565b6124d8816134eb565b840191505092915050565b60006124ee826131bf565b6124f881856131db565b9350612508818560208601613346565b612511816134eb565b840191505092915050565b6000612527826131bf565b61253181856131ec565b9350612541818560208601613346565b61254a816134eb565b840191505092915050565b6000612560826131bf565b61256a81856131fd565b935061257a818560208601613346565b80840191505092915050565b60006125936032836131db565b91507f4552433732313a207472616e7366657220746f206e6f6e20455243373231526560008301527f63656976657220696d706c656d656e74657200000000000000000000000000006020830152604082019050919050565b60006125f9601c836131db565b91507f4552433732313a20746f6b656e20616c7265616479206d696e746564000000006000830152602082019050919050565b60006126396024836131db565b91507f4552433732313a207472616e7366657220746f20746865207a65726f2061646460008301527f72657373000000000000000000000000000000000000000000000000000000006020830152604082019050919050565b600061269f6019836131db565b91507f4552433732313a20617070726f766520746f2063616c6c6572000000000000006000830152602082019050919050565b60006126df602c836131db565b91507f4552433732313a206f70657261746f7220717565727920666f72206e6f6e657860008301527f697374656e7420746f6b656e00000000000000000000000000000000000000006020830152604082019050919050565b60006127456008836131fd565b91507f2054726f6f7065720000000000000000000000000000000000000000000000006000830152600882019050919050565b60006127856001836131fd565b91507f20000000000000000000000000000000000000000000000000000000000000006000830152600182019050919050565b60006127c56038836131db565b91507f4552433732313a20617070726f76652063616c6c6572206973206e6f74206f7760008301527f6e6572206e6f7220617070726f76656420666f7220616c6c00000000000000006020830152604082019050919050565b600061282b602a836131db565b91507f4552433732313a2062616c616e636520717565727920666f7220746865207a6560008301527f726f2061646472657373000000000000000000000000000000000000000000006020830152604082019050919050565b60006128916029836131db565b91507f4552433732313a206f776e657220717565727920666f72206e6f6e657869737460008301527f656e7420746f6b656e00000000000000000000000000000000000000000000006020830152604082019050919050565b60006128f7602e836131db565b91507f45524337323155524953746f726167653a2055524920736574206f66206e6f6e60008301527f6578697374656e7420746f6b656e0000000000000000000000000000000000006020830152604082019050919050565b600061295d6020836131db565b91507f4552433732313a206d696e7420746f20746865207a65726f20616464726573736000830152602082019050919050565b600061299d6031836131db565b91507f45524337323155524953746f726167653a2055524920717565727920666f722060008301527f6e6f6e6578697374656e7420746f6b656e0000000000000000000000000000006020830152604082019050919050565b6000612a03602c836131db565b91507f4552433732313a20617070726f76656420717565727920666f72206e6f6e657860008301527f697374656e7420746f6b656e00000000000000000000000000000000000000006020830152604082019050919050565b6000612a696002836131fd565b91507f41200000000000000000000000000000000000000000000000000000000000006000830152600282019050919050565b6000612aa96029836131db565b91507f4552433732313a207472616e73666572206f6620746f6b656e2074686174206960008301527f73206e6f74206f776e00000000000000000000000000000000000000000000006020830152604082019050919050565b6000612b0f602f836131db565b91507f4552433732314d657461646174613a2055524920717565727920666f72206e6f60008301527f6e6578697374656e7420746f6b656e00000000000000000000000000000000006020830152604082019050919050565b6000612b756021836131db565b91507f4552433732313a20617070726f76616c20746f2063757272656e74206f776e6560008301527f72000000000000000000000000000000000000000000000000000000000000006020830152604082019050919050565b6000612bdb6031836131db565b91507f4552433732313a207472616e736665722063616c6c6572206973206e6f74206f60008301527f776e6572206e6f7220617070726f7665640000000000000000000000000000006020830152604082019050919050565b60006080830160008301518482036000860152612c51828261251c565b91505060208301518482036020860152612c6b828261251c565b91505060408301518482036040860152612c85828261251c565b91505060608301518482036060860152612c9f828261251c565b9150508091505092915050565b612cb58161332d565b82525050565b612ccc612cc78261332d565b6133f4565b82525050565b6000612cde8285612555565b9150612cea8284612555565b91508190509392505050565b6000612d028286612555565b9150612d0e8285612cbb565b602082019150612d1e8284612cbb565b602082019150819050949350505050565b6000612d3a82612a5c565b9150612d468285612555565b9150612d5182612778565b9150612d5d8284612555565b9150612d6882612738565b91508190509392505050565b6000602082019050612d89600083018461248c565b92915050565b6000608082019050612da4600083018761248c565b612db1602083018661248c565b612dbe6040830185612cac565b8181036060830152612dd081846124aa565b905095945050505050565b6000604082019050612df0600083018561248c565b612dfd6020830184612cac565b9392505050565b6000602082019050612e19600083018461249b565b92915050565b60006020820190508181036000830152612e3981846124e3565b905092915050565b60006040820190508181036000830152612e5b81856124e3565b90508181036020830152612e6f81846124e3565b90509392505050565b60006040820190508181036000830152612e9281856124e3565b9050612ea16020830184612cac565b9392505050565b60006060820190508181036000830152612ec281866124e3565b9050612ed16020830185612cac565b612ede604083018461248c565b949350505050565b60006020820190508181036000830152612eff81612586565b9050919050565b60006020820190508181036000830152612f1f816125ec565b9050919050565b60006020820190508181036000830152612f3f8161262c565b9050919050565b60006020820190508181036000830152612f5f81612692565b9050919050565b60006020820190508181036000830152612f7f816126d2565b9050919050565b60006020820190508181036000830152612f9f816127b8565b9050919050565b60006020820190508181036000830152612fbf8161281e565b9050919050565b60006020820190508181036000830152612fdf81612884565b9050919050565b60006020820190508181036000830152612fff816128ea565b9050919050565b6000602082019050818103600083015261301f81612950565b9050919050565b6000602082019050818103600083015261303f81612990565b9050919050565b6000602082019050818103600083015261305f816129f6565b9050919050565b6000602082019050818103600083015261307f81612a9c565b9050919050565b6000602082019050818103600083015261309f81612b02565b9050919050565b600060208201905081810360008301526130bf81612b68565b9050919050565b600060208201905081810360008301526130df81612bce565b9050919050565b600060208201905081810360008301526131008184612c34565b905092915050565b600060208201905061311d6000830184612cac565b92915050565b6000604051905081810181811067ffffffffffffffff8211171561314a576131496134bc565b5b8060405250919050565b600067ffffffffffffffff82111561316f5761316e6134bc565b5b601f19601f8301169050602081019050919050565b600067ffffffffffffffff82111561319f5761319e6134bc565b5b601f19601f8301169050602081019050919050565b600081519050919050565b600081519050919050565b600082825260208201905092915050565b600082825260208201905092915050565b600082825260208201905092915050565b600081905092915050565b60006132138261332d565b915061321e8361332d565b9250827fffffffffffffffffffffffffffffffffffffffffffffffffffffffffffffffff038211156132535761325261342f565b5b828201905092915050565b60006132698261332d565b91506132748361332d565b9250826132845761328361345e565b5b828204905092915050565b600061329a8261332d565b91506132a58361332d565b9250828210156132b8576132b761342f565b5b828203905092915050565b60006132ce8261330d565b9050919050565b60008115159050919050565b60007fffffffff0000000000000000000000000000000000000000000000000000000082169050919050565b600073ffffffffffffffffffffffffffffffffffffffff82169050919050565b6000819050919050565b82818337600083830152505050565b60005b83811015613364578082015181840152602081019050613349565b83811115613373576000848401525b50505050565b6000600282049050600182168061339157607f821691505b602082108114156133a5576133a461348d565b5b50919050565b60006133b68261332d565b91507fffffffffffffffffffffffffffffffffffffffffffffffffffffffffffffffff8214156133e9576133e861342f565b5b600182019050919050565b6000819050919050565b60006134098261332d565b91506134148361332d565b9250826134245761342361345e565b5b828206905092915050565b7f4e487b7100000000000000000000000000000000000000000000000000000000600052601160045260246000fd5b7f4e487b7100000000000000000000000000000000000000000000000000000000600052601260045260246000fd5b7f4e487b7100000000000000000000000000000000000000000000000000000000600052602260045260246000fd5b7f4e487b7100000000000000000000000000000000000000000000000000000000600052604160045260246000fd5b6000601f19601f8301169050919050565b613505816132c3565b811461351057600080fd5b50565b61351c816132d5565b811461352757600080fd5b50565b613533816132e1565b811461353e57600080fd5b50565b61354a8161332d565b811461355557600080fd5b5056fe416e204e465420772f20494420257320686173206265656e206d696e74656420746f202573a2646970667358221220c0e60762d957fff1ffc7f85dc9ea842a64e23e447b5754a2aa971de5f9c1e24764736f6c63430008000033546869732069732074686520436f6c6f7266756c2054726f6f706572204e465420436f6e747261637421",
  "linkReferences": {
    "contracts/libraries/NFTDescriptor.sol": {
      "NFTDescriptor": [
        {
          "length": 20,
          "start": 5918
        }
      ]
    }
  },
  "deployedLinkReferences": {
    "contracts/libraries/NFTDescriptor.sol": {
      "NFTDescriptor": [
        {
          "length": 20,
          "start": 1769
        }
      ]
    }
  }
}